:020000040800F2
:10000000302D002099010008950300088D03000899
:1000100091030008E1010008650A000800000000E3
:1000200000000000000000000000000001010008C6
:10003000E50100080000000045010008D5040008A3
:10004000B3010008B3010008B3010008B3010008C0
:10005000B3010008B3010008B3010008B3010008B0
:10006000B3010008B3010008B3010008B3010008A0
:10007000B3010008B3010008B3010008B301000890
:10008000B3010008B3010008B3010008B301000880
:10009000B3010008B3010008B3010008B301000870
:1000A000B3010008B3010008B3010008B301000860
:1000B000B3010008B3010008B3010008B301000850
:1000C000B3010008B3010008B3010008B301000840
:1000D000B3010008B3010008B3010008B301000830
:1000E000B3010008B3010008B3010008DFF80CD029
:1000F00000F064F800480047890A0008302D00200D
:10010000224B19680868B0E8F00F80F30988BFF344
:100110006F8F4FF0000080F311884EF00D0E704786
:100120000000000006480068006880F3088862B696
:1001300061B6BFF34F8FBFF36F8F00DF00BF00BF0B
:1001400008ED00E0EFF30980BFF36F8F0F4B1A68E3
:1001500020E9F00F106008B54FF0BF0080F3118860
:10016000BFF34F8FBFF36F8F01F062F84FF00000C5
:1001700080F31188BDE8084019680868B0E8F00FFE
:1001800080F30988BFF36F8F704700BF0000002025
:10019000EFF3058070470000064880470648004797
:1001A000FEE7FEE7FEE7FEE7FEE7FEE7FEE7FEE727
:1001B000FEE7FEE709050008ED000008064C074DC4
:1001C00006E0E06840F0010394E807009847103427
:1001D000AC42F6D3FFF78EFF28150008481500083B
:1001E00000BFFEE770472DE9F041024600250026DA
:1001F000002000230024002791F803C00CF00F0515
:1002000091F803C00CF0100CBCF1000F03D091F872
:1002100002C04CEA050591F800C0BCF1000F31D0D6
:10022000146800202BE04FF0010C0CFA00F3B1F839
:1002300000C00CEA03069E4220D183004FF00F0C51
:100240000CFA03F7BC4305FA03FC4CEA040491F8EA
:1002500003C0BCF1280F06D14FF0010C0CFA00FCD2
:10026000C2F814C00AE091F803C0BCF1480F05D1F0
:100270004FF0010C0CFA00FCC2F810C0401C08281A
:10028000D1D31460B1F800C0BCF1FF0F34DD546865
:1002900000202EE000F1080C4FF0010808FA0CF3E2
:1002A000B1F800C00CEA03069E4221D183004FF052
:1002B0000F0C0CFA03F7BC4305FA03FC4CEA0404E8
:1002C00091F803C0BCF1280F05D100F1080C08FA21
:1002D0000CF8C2F8148091F803C0BCF1480F07D1A4
:1002E00000F1080C4FF0010808FA0CF8C2F8108071
:1002F000401C0828CED35460BDE8F081F0B50A4612
:10030000002300240021002500F00046B6F1004F34
:1003100002D11D4EF16901E01B4E7168C0F3034527
:1003200083B200F44016B6F5401F08D121F0706189
:10033000154E766826F07066134F7E6012E000F46A
:100340008016B6F5801F06D1032606FA05F4A143F0
:1003500041F0706106E0460D360103FA06F6B1433E
:1003600041F0706122B1460D360103FA06F63143C1
:1003700000F00046B6F1004F02D1034EF16101E0FA
:10038000014E7160F0BD00000000014000BFFEE7BB
:1003900000BFFEE77047000002490143024A1160B6
:1003A000704700000000FA050CED00E029B1064A94
:1003B000D2690243044BDA6104E0034AD269824302
:1003C000014BDA61704700000010024029B1064A73
:1003D00092690243044B9A6104E0034A92698243A2
:1003E000014B9A61704700000010024010B500F008
:1003F00001F810BD0CB50020019000903348006852
:1004000040F480303149086000BF3048006800F493
:10041000003000900198401C0190009818B9019894
:10042000B0F5A06FF1D12948006800F4003010B198
:100430000120009001E0002000900098012843D1A5
:100440002348006840F01000214908600846006811
:1004500020F0030008600846006840F002000860D1
:100460001A4840681949486008464068486008468C
:10047000406840F4806048600846406820F47C1082
:1004800048600846406840F4E81048600846006844
:1004900040F08070086000BF0C48006800F00070F9
:1004A0000028F9D00948406820F003000749486057
:1004B0000846406840F00200486000BF03484068BA
:1004C00000F00C000828F9D10CBD0000001002401B
:1004D0000020024010B500BFBF2080F31188BFF399
:1004E0004F8FBFF36F8F00BF00F01CFF18B14FF0AC
:1004F00080500449086000BF002080F3118800BFCD
:1005000010BD000004ED00E010B51348006840F095
:1005100001001149086008464068104908400E492A
:100520004860084600680E4908400B4908600846C4
:10053000006820F4802008600846406820F4FE002F
:1005400048604FF41F008860FFF750FF4FF00060D5
:100550000449086010BD0000001002400000FFF8D0
:10056000FFFFF6FE08ED00E030B589B005460C4609
:1005700001211D20FFF72AFF01210220FFF716FFAE
:1005800001210846FFF712FF4FF40050ADF820009C
:1005900010208DF8230003208DF8220008A94B4875
:1005A000FFF721FE4FF48070ADF8200010208DF889
:1005B000230003208DF8220008A94548FFF713FE09
:1005C00001214448FFF79AFE3320ADF8200018209F
:1005D0008DF8230003208DF8220008A93E48FFF77C
:1005E00002FE0320ADF8200018208DF82300032020
:1005F0008DF8220008A93648FFF7F5FDADF8185030
:10060000ADF814400020ADF81A00ADF8160005A9A9
:10061000324800F0D5F905A94FF0804000F0D0F93C
:100620007020ADF804000120ADF806000020ADF800
:100630000C0001A9294800F0B5F80821274800F06E
:1006400003F901A94FF0804000F0ACF80821C8067A
:1006500000F0FAF801A9214800F04EF808211F48DF
:1006600000F096F801A91D4800F09CF808211B48ED
:1006700000F0EAF801A9194800F0F4F80821174839
:1006800000F040F901A9154800F046F90821134887
:1006900000F080F901A94FF0804000F02DF808210A
:1006A000C80600F075F801A94FF0804000F07AF814
:1006B0000821C80600F0C8F80121084800F010F829
:1006C0000121880700F00CF809B030BD001001408E
:1006D0000008014000081A00000C0140000400401E
:1006E00021B1028842F00102028004E002884FF644
:1006F000FE731A400280704770B500240022002368
:10070000058C4FF6FE7635400584028C8388048B79
:100710004FF68F752C40B51E2C400D882C43751E4E
:100720002A400D892A434D882A43144DA8420BD0F4
:10073000134DA84208D0134DA84205D0124DA8422F
:1007400002D0124DA84213D14FF6F7752A404D89B9
:100750002A434FF6FB752A408D882A434FF6FF65E2
:100760002B404FF6FF552B408D892B43CD892B43D2
:1007700083800483CD888586028470BD002C01406F
:100780000034014000400140004401400048014065
:100790000A460021018B4FF6F7731940114301837C
:1007A0007047000070B5002400220023058C4FF62E
:1007B000EF7635400584028C8388048B48F6FF75FC
:1007C0002C404FF6FF452C400D884FF6FF7606EA89
:1007D00005252C434FF6DF752A400D8906EA0515DD
:1007E0002A434D8806EA05152A43154DA84202D032
:1007F000144DA8421DD14FF67F752A404D894FF602
:10080000FF7606EA05152A434FF6BF752A408D8804
:1008100006EA05152A434FF6FF352B404FF2FF75C8
:100820002B408D8906EA85052B43CD8906EA85058F
:100830002B4383800483CD880587028470BD00002C
:10084000002C0140003401400A460021018B4FF288
:10085000FF7319404FF6FF7303EA02231943018324
:100860007047000070B5002400220023058C4FF66D
:10087000FF6635400584028C8388848B4FF68F7524
:100880002C404FF6FC752C400D882C434FF6FF553D
:100890002A400D894FF6FF7606EA05252A434D8842
:1008A00006EA05252A43154DA84202D0144DA84258
:1008B0001DD14FF2FF752A404D894FF6FF7606EAAB
:1008C00005252A434FF6FF352A408D8806EA05257F
:1008D0002A434EF6FF752B404DF6FF752B408D8950
:1008E00006EA05152B43CD8906EA05152B438380BF
:1008F0008483CD888587028470BD0000002C014070
:10090000003401400A460021818B4FF6F7731940ED
:10091000114381837047000070B50022002300243A
:10092000058C4EF6FF7635400584038C8488828BD7
:1009300048F6FF752A404FF6FF452A400D884FF6CE
:10094000FF7606EA05252A434DF6FF752B400D89F3
:1009500006EA05352B434D8806EA05352B430B4D3A
:10096000A84202D00A4DA84208D14BF6FF752C4090
:100970008D894FF6FF7606EA85152C4384808283A5
:10098000CD88A0F84050038470BD0000002C0140C9
:10099000003401400A460021818B4FF2FF73194059
:1009A0004FF6FF7303EA0223194381837047818660
:1009B00070470187704781877047A0F840107047E3
:1009C000002202881D4B98420ED01D4B98420BD03E
:1009D000B0F1804F08D01B4B984205D01A4B98427B
:1009E00002D01A4B984204D14FF68F731A404B88AD
:1009F0001A43174B984207D0164B984204D04FF633
:100A0000FF431A40CB881A4302808B8883850B886A
:100A100003850A4B98420BD0094B984208D00E4BE5
:100A2000984205D00D4B984202D00D4B984201D10F
:100A30000B7A03860123838270470000002C01405B
:100A4000003401400004004000080040000C004059
:100A500000100040001400400040014000440140EC
:100A60000048014000BFFEE702E008C8121F08C1AD
:100A7000002AFAD170477047002001E001C1121F1F
:100A8000002AFBD1704700001CB54FF44070FFF7FF
:100A900083FC41F61F41C720FFF766FD00200221BD
:100AA0000346CA01CDE9001003A1064800F00AFC84
:100AB00000F080FB00201CBD7650574D5461736BD5
:100AC00000000000511000082DE9F04105460E46D7
:100AD0001C4807681C480068001D00F06FFA50B9F8
:100AE0001948006890F82C100120884017490968BF
:100AF000814316480160681C38B936B11248016854
:100B0000091D134800F098FA1AE07C190E48006895
:100B10004460BC4207D20C480168091D0D480068BA
:100B200000F070FA0CE008480168091D0A480068E6
:100B300000F068FA09480068844201D2074804605E
:100B4000BDE8F08114000020000000201800002003
:100B500018010020080000200400002030000020C0
:100B600010B5044600F0B2FA23480068401C224940
:100B700008602248006840B92048046008460068C0
:100B800001280DD100F00CF90AE01D48006838B9C1
:100B90001A480068C06AE16A884201D817480460B0
:100BA00018480068401C1749086094F82C10012070
:100BB000884015490968084313490860E16A01EB58
:100BC0008101124A02EB8100211D00F035FA00F08C
:100BD0008FFA0B48006868B108480068C06AE16A8B
:100BE000884207D24FF0805009490860BFF34F8F09
:100BF000BFF36F8F10BD0000100000200000002028
:100C00001C0000202C0000201800002064000020A0
:100C100004ED00E010B516E000F058FA0C48C0688A
:100C2000C468201D00F0CAF90A480068401E09493E
:100C3000086009480068401E0749086000F058FA3B
:100C4000204600F00BF8044800680028E4D110BDED
:100C500004010020100000200C00002010B5044604
:100C6000206B00F055FA204600F052FA10BD00004B
:100C700030B54FF42053174800F007042CB1C01DC5
:100C800020F00700134C041B1B1B0246124C226071
:100C90000024114D6C60D018083820F007000F4C6C
:100CA000206000240D4D2D686C600C4D2D682C606B
:100CB0001146441A4C60094C24680C60084D4C687D
:100CC0002C60084D4C682C604FF00044064D2C60A1
:100CD00030BD00002C010020400000204800002012
:100CE000500000204C0000205C00002000BFFFF7F7
:100CF00091FF064800680128F9D94FF08050044957
:100D00000860BFF34F8FBFF36F8FF0E764000020E0
:100D100004ED00E02DE9FF5F80460E469146DDE9D7
:100D20000E7A109CA9F10100216B01EB800B2BF0D6
:100D3000070B86B1002507E0715D04F134004155D1
:100D4000705D00B902E06D1C102DF5D300BF0021CD
:100D50004320015502E0002084F83400052F00D321
:100D60000427E762201D00F04AF904F1180000F0A2
:100D700046F92461C7F10500A06164620020606447
:100D800084F8480041465846039A00F005F920606F
:100D9000BAF1000F01D0CAF80040BDE8FF9F000083
:100DA00010B5002407E004EB84010F4A02EB810038
:100DB00000F018F9641C052CF5D30C4800F012F96A
:100DC0000B4800F00FF90B4800F00CF90A4800F04E
:100DD00009F90A4800F006F904480949086004487E
:100DE0000849086010BD000064000020C800002011
:100DF000DC000020F0000020040100201801002089
:100E0000040000200800002010B50146164800E04C
:100E1000006803688B42FBD30246436813448B424D
:100E200004D143684C682344436001460A464B683A
:100E300013440468A34211D10C4C03682468A342F4
:100E400008D04B680468646823444B6003681B68DF
:100E50000B6005E0054B1B680B6001E003680B604D
:100E6000884200D0016010BD4000002048000020F2
:100E700009480068006808B9012000E0002020B19E
:100E80004FF0FF300549086005E003480068C0687E
:100E9000006802490860704704000020300000200C
:100EA00000BFBF2080F31188BFF34F8FBFF36F8F58
:100EB00000BF00BFFEE700002DE9F04105464FF0FE
:100EC000000800F0ADF92E48006808B9FFF7D0FE21
:100ED0002C480068284000284CD145B1083505F061
:100EE000070020B105F00700C0F108000544002DFF
:100EF00040D02548006885423CD8244E30460468DE
:100F000001E0264624686068A84202D220680028D2
:100F1000F7D11B48006884422CD0306800F10808E3
:100F2000206830606068401B102807D96719606826
:100F3000401B786065603846FFF766FF12496068BD
:100F40000968081A104908600846006810490968CD
:100F5000884203D20C4800680D490860094960685E
:100F6000096808436060002020600A480068401C4F
:100F70000849086000F064FA4046BDE8F0810000CE
:100F8000480000205C0000204C00002040000020B1
:100F90005000002054000020001F4FF080730360B9
:100FA000001F21F001030360001F034B036014388E
:100FB0000260203870470000A10E000801460A694F
:100FC000D1E901309860D1E9010358605068884246
:100FD00001D188685060002008611068401E1060D0
:100FE0001068704700F1080141604FF0FF318160E7
:100FF00000F10801C160016100210160704700211A
:101000000161704710B502460B685C1C0CB9106991
:1010100007E002F1080000E04068446824689C4250
:10102000FAD944684C604C68A160886041600A61EC
:101030001468641C146010BD42684A6093688B6039
:10104000936859609160086103685B1C0360704796
:1010500039E0B0211C48FFF7ACFCB1211A48FFF77A
:10106000A6FCB3211848FFF7A6FCB2211648FFF7EB
:10107000A4FCB3214FF08040FFF799FCB221480750
:10108000FFF797FC40F6B83000F07AF8C2210E481E
:10109000FFF78FFCC1210C48FFF789FCC0210A48EB
:1010A000FFF789FCBF210848FFF787FCBE214FF0FE
:1010B0008040FFF77CFCBD218807FFF77AFC40F6F3
:1010C000B83000F05DF8C4E70004004000BFBF2066
:1010D00080F31188BFF34F8FBFF36F8F00BF0348BA
:1010E0000068401C01490860704700006000002053
:1010F00006480068401E054908600846006820B997
:10110000002080F3118800BF00BF704760000020FE
:1011100070B506463546FEB1083D2C460F4960685D
:1011200009680840C0B12068B0B90C496068096816
:101130008843606000F074F80949606809680844F1
:10114000074908602046FFF75FFE06480068401C1C
:101150000449086000F074F970BD00005C000020D4
:101160004C0000205800002000204FF0E0210861D2
:101170008861024848610720086170473F190100F3
:1011800070B50446002544B100F04AF8002120461D
:10119000FFF79AFC00F054F905463DB94FF0805036
:1011A00003490860BFF34F8FBFF36F8F70BD00001E
:1011B00004ED00E01CB5124800210B468022CDE969
:1011C000001010A1114800F07DF80446012C14D144
:1011D00000BFBF2080F31188BFF34F8FBFF36F8F25
:1011E00000BF4FF0FF300A4908600120094908603C
:1011F00000200949086000F04BF8084800681CBD51
:101200003400002049444C4500000000ED0C00086B
:10121000300000201C0000201400002038000020B6
:1012200002480068401C0149086070473C000020EB
:101230001248006818B10120114908601DE0002023
:101240000F4908600F480068B0FA80F0C0F11F0134
:1012500001EB81020C4B03EB820042685268426052
:1012600000F108024368934202D14268526842602A
:101270004268D268054B1A6000BF70473C000020EE
:10128000240000201800002064000020000000203E
:1012900010B50A48006840F47F0008490860084615
:1012A000006840F07F400860FFF75EFF00200449BF
:1012B0000860FEF737FF002010BD000020ED00E0C1
:1012C000600000202DE9FF4F85B080468946174613
:1012D000DDE912ABB800FFF7EFFD064656B14C2032
:1012E000FFF7EAFD04460CB1266304E03046FFF741
:1012F0000FFF00E000247CB10020CDE900ABCDE978
:1013000002403A4649464046089BFFF703FD204607
:10131000FFF726FC012501E04FF0FF35284609B014
:10132000BDE8F08F2DE9F04100273A480068002819
:1013300067D139480068451C374805608DB9374882
:10134000D0F8008036480068344908603448C0F856
:10135000008034480068401C32490860FFF788FD6F
:1013600000BF3148006885423BD300BF2B4800686E
:10137000006808B9012000E0002020B14FF0FF30E4
:10138000294908602CE025480068C068C468666880
:10139000B54202D22448066022E0201DFFF70EFE6F
:1013A000A06A18B104F11800FFF708FE94F82C1099
:1013B000012088401D49096808431C490860E16A0A
:1013C00001EB81011A4A02EB8100211DFFF734FE77
:1013D0001849E06A0968C96A8842C7D30127C5E786
:1013E00000BF14480068C06A00EB8000104951F843
:1013F0002000012800D901270F48006800B101270B
:1014000004E00E480068401C0C4908603846BDE8FE
:10141000F08100003C0000201400002004000020A7
:1014200008000020280000203000002018000020C4
:101430006400002000000020240000202000002084
:1014400070B500240026FFF741FE2E480068401EBC
:101450002C4908600846006800284FD12A480068D7
:1014600000284BD024E02948C068C46804F1180063
:10147000FFF7A4FD201DFFF7A1FD94F82C1001201B
:10148000884023490968084321490860E16A01EB63
:101490008101204A02EB8100211DFFF7CDFD1E498D
:1014A000E06A0968C96A884202D301201B490860C2
:1014B0001648006808B9012000E000200028D2D0BA
:1014C0000CB1FFF7D5FC1648056865B100BFFFF702
:1014D00029FF10B10120114908606D1E002DF6D1C1
:1014E00000200F4908600D48006838B10126300718
:1014F0000C490860BFF34F8FBFF36F8FFFF7F8FD04
:10150000304670BD3C00002010000020F00000209C
:1015100018000020640000200000002024000020AB
:101520002000002004ED00E0481500080000002025
:1015300064000000680A0008AC1500086400002080
:10154000CC2C0000780A0008000000000000000019
:10155000000000000000000000000000000000008B
:10156000000000000000000000000000000000007B
:10157000000000000000000000000000000000006B
:101580000400000000000000000000000000000057
:10159000000000000000000000000000000000004B
:0C15A0000000000000000000AAAAAAAA97
:04000005080000ED02
:00000001FF
